S015000074726166666963206C696768742E73726563F8
S11300000C942A000C943E010C943C000C943C008B
S11300100C943C000C943C000C943C000C943C006C
S11300200C943C000C943C000C943C000C94B700E1
S11300300C943C000C943C000C943C000C943C004C
S11300400C943C000C943C000C943C000C943C003C
S11300500C943C0011241FBECFE5D8E0DEBFCDBF19
S113006020E0A0E6B0E001C01D92A336B207E1F79C
S11300700E945B010C9475020C94000060E081E422
S11300800E944C0161E081E40E944C0162E081E441
S11300900E944C0160E082E40E944C0161E082E431
S11300A00E944C0162E082E40E944C0162E084E41C
S11300B00E94480160E080E00E94FF010E94D30199
S11300C083E00E94D7010E94FB01089580916000A3
S11300D08130B9F028F0823031F18330B1F10895E4
S11300E01092610060E081E40E94500162E082E4C9
S11300F00E94500185E00E94270285E08093600001
S1130100089581E08093610061E081E40E945001E0
S113011061E082E40E94500185E00E94270285E0AC
S113012080936000089582E08093610062E081E43E
S11301300E94500160E082E40E94500185E00E9428
S1130140270285E080936000089583E08093610036
S113015061E081E40E94500161E082E40E94500168
S113016085E00E94270285E08093600008951F9235
S11301700F920FB60F9211242F933F934F935F93D7
S11301806F937F938F939F93AF93BF93EF93FF935B
S113019080916200823108F449C0109262000E948A
S11301A07102809161008130A9F028F0823009F158
S11301B0833071F152C060E081E40E94540162E036
S11301C082E40E94540180E00E94270281E080932F
S11301D0600043C061E081E40E94540161E082E474
S11301E00E94540180E00E94270282E08093600014
S11301F034C062E081E40E94540160E082E40E9421
S1130200540180E00E94270283E08093600025C0AF
S113021061E081E40E94540161E082E40E9454019F
S113022080E00E9427021092600017C09091610044
S1130230913011F0933071F461E081E40E9458012F
S113024061E082E40E945801809162008F5F809394
S1130250620003C08F5F80936200FF91EF91BF91B2
S1130260AF919F918F917F916F915F914F913F914A
S11302702F910F900FBE0F901F9018951F920F9201
S11302800FB60F9211240F900FBE0F901F90189568
S113029040E00E947801089541E00E9478010895A9
S11302A041E00E949D01089540E00E949D0108954F
S11302B00E94C20108950E943E000E946600FDCF84
S11302C0823499F018F4813469F00BC0833419F046
S11302D0843421F006C083E390E0089580E390E045
S11302E00895089589E390E0089586E390E00895E1
S11302F0CF93DF93D62FC42F0E946001C13061F4E5
S1130300FC01418121E030E002C0220F331FDA9565
S1130310E2F7242B21830EC0C1110CC0FC014181E2
S113032021E030E002C0220F331FDA95E2F7209576
S113033024232183DF91CF910895CF93DF93D62F88
S1130340C42F0E946001C13061F4FC01428121E0AC
S113035030E002C0220F331FDA95E2F7242B228308
S11303600EC0C1110CC0FC01428121E030E002C08A
S1130370220F331FDA95E2F7209524232283DF919D
S1130380CF910895CF93C62F0E946001FC01428152
S113039021E030E002C0220F331FCA95E2F7242780
S11303A02283CF9108958FB780688FBF08958130DD
S11303B069F028F0823089F08330B1F0089585B770
S11303C08E7F85BF85B78D7F85BF089585B7816092
S11303D085BF85B78D7F85BF089585B78E7F85BF1F
S11303E085B7826085BF089585B7816085BF85B76D
S11303F0826085BF08958BB780648BBF0895813078
S113040069F028F0823089F08330B1F01BC083B7E3
S11304108F7B83BF83B7877F83BF14C083B7806418
S113042083BF83B7877F83BF0DC083B78F7B83BFB1
S113043083B7886083BF06C083B7806483BF83B7F4
S1130440886083BF62BF89B7816089BF08958230A5
S113045001F128F4882349F0813089F0089584302B
S113046061F108F1853099F1089583B78E7F83BFD8
S113047083B78D7F83BF83B78B7F83BF089583B793
S1130480816083BF83B78D7F83BF83B78B7F83BF37
S1130490089583B78E7F83BF83B7826083BF83B79A
S11304A08B7F83BF089583B7816083BF83B78260E6
S11304B083BF83B78B7F83BF089583B78E7F83BF4A
S11304C083B78D7F83BF83B7846083BF089583B769
S11304D0816083BF83B78D7F83BF83B7846083BF0D
S11104E0089588B7816088BF0895F894FFCF0F
S9030000FC
